{
    "_format": "hh-sol-artifact-1",
    "contractName": "SastraShop",
    "sourceName": "contracts/shopping.sol",
    "abi": [
        {
            "inputs": [],
            "stateMutability": "nonpayable",
            "type": "constructor"
        },
        {
            "inputs": [],
            "name": "getTotalProducts",
            "outputs": [
                {
                    "internalType": "uint256",
                    "name": "",
                    "type": "uint256"
                }
            ],
            "stateMutability": "view",
            "type": "function"
        },
        {
            "inputs": [],
            "name": "register",
            "outputs": [],
            "stateMutability": "nonpayable",
            "type": "function"
        }
    ],
    "bytecode": "0x608060405234801561001057600080fd5b506100596040518060400160405280601a81526020017f5361737472612073686f7020686173206265656e20736574757000000000000081525061005e60201b6101081760201c565b6101d8565b6100fa8160405160240161007291906101b6565b6040516020818303038152906040527f41304fac000000000000000000000000000000000000000000000000000000007bffffffffffffffffffffffffffffffffffffffffffffffffffffffff19166020820180517bffffffffffffffffffffffffffffffffffffffffffffffffffffffff83818316178352505050506100fd60201b60201c565b50565b60008151905060006a636f6e736f6c652e6c6f679050602083016000808483855afa5050505050565b600081519050919050565b600082825260208201905092915050565b60005b83811015610160578082015181840152602081019050610145565b60008484015250505050565b6000601f19601f8301169050919050565b600061018882610126565b6101928185610131565b93506101a2818560208601610142565b6101ab8161016c565b840191505092915050565b600060208201905081810360008301526101d0818461017d565b905092915050565b610522806101e76000396000f3fe608060405234801561001057600080fd5b50600436106100365760003560e01c80631aa3a0081461003b578063570aea8a14610045575b600080fd5b610043610063565b005b61004d6100bd565b60405161005a919061031b565b60405180910390f35b60016000808282546100759190610365565b925050819055506100bb336040518060400160405280601681526020017f686173206c6973746564206861732070726f64756374000000000000000000008152506101a1565b565b60006101006000546040518060400160405280601181526020017f202d20746f74616c2070726f647563747300000000000000000000000000000081525061023d565b600054905090565b61019e8160405160240161011c9190610429565b6040516020818303038152906040527f41304fac000000000000000000000000000000000000000000000000000000007bffffffffffffffffffffffffffffffffffffffffffffffffffffffff19166020820180517bffffffffffffffffffffffffffffffffffffffffffffffffffffffff83818316178352505050506102d9565b50565b61023982826040516024016101b792919061048c565b6040516020818303038152906040527f759f86bb000000000000000000000000000000000000000000000000000000007bffffffffffffffffffffffffffffffffffffffffffffffffffffffff19166020820180517bffffffffffffffffffffffffffffffffffffffffffffffffffffffff83818316178352505050506102d9565b5050565b6102d582826040516024016102539291906104bc565b6040516020818303038152906040527f643fd0df000000000000000000000000000000000000000000000000000000007bffffffffffffffffffffffffffffffffffffffffffffffffffffffff19166020820180517bffffffffffffffffffffffffffffffffffffffffffffffffffffffff83818316178352505050506102d9565b5050565b60008151905060006a636f6e736f6c652e6c6f679050602083016000808483855afa5050505050565b6000819050919050565b61031581610302565b82525050565b6000602082019050610330600083018461030c565b92915050565b7f4e487b7100000000000000000000000000000000000000000000000000000000600052601160045260246000fd5b600061037082610302565b915061037b83610302565b925082820190508082111561039357610392610336565b5b92915050565b600081519050919050565b600082825260208201905092915050565b60005b838110156103d35780820151818401526020810190506103b8565b60008484015250505050565b6000601f19601f8301169050919050565b60006103fb82610399565b61040581856103a4565b93506104158185602086016103b5565b61041e816103df565b840191505092915050565b6000602082019050818103600083015261044381846103f0565b905092915050565b600073ffffffffffffffffffffffffffffffffffffffff82169050919050565b60006104768261044b565b9050919050565b6104868161046b565b82525050565b60006040820190506104a1600083018561047d565b81810360208301526104b381846103f0565b90509392505050565b60006040820190506104d1600083018561030c565b81810360208301526104e381846103f0565b9050939250505056fea26469706673582212200ebe6220e4dea6f766b507edad36af96f0c3aff8cafb25b1902035006212efd464736f6c63430008120033",
    "linkReferences": {},
    "deployedLinkReferences": {}
}